:020000020000FC
:0200000048C0F6
:10007C00544E205669205875204C792D415652000B
:10008C004C32303233000E945800F0E0EEE30E9414
:10009C00AA0001E010E00E949A00F0E0E6E40E9461
:1000AC00AA00FFCF07EF01B90E94D3000E94D30032
:1000BC0002E00E946E0008E20E946E000EE00E94B8
:1000CC006E0001E00E946E0000E80E946E00089530
:1000DC001F930E94B900102F107F12B9000000006E
:1000EC00129A0000000012980295007F02B9129A31
:1000FC000000000012981F9108951F930E94B900F0
:10010C00102F107F116012B90000129A0000129883
:10011C0000000295007F007F016002B90000129A76
:10012C00000012981F910895003031F41F70106870
:10013C00012F0E946E000895013029F41F70106C7D
:10014C00012F0E946E000895FF93EF930F93EE0F13
:10015C00FF1F0591003019F00E948300FACF0F9118
:10016C00EF91FF9108950F9307E001B902EF02B9E7
:10017C000000129A0000000000B112980000129AC0
:10018C0000000000129800000078003891F307EF8F
:10019C0001B900E002B90F9108950AE01AEF0000CE
:0A01AC001A95E9F70A95D1F70895B6
:00000001FF
